:100000000C942A000C943F000C943F000C943F0089
:100010000C943F000C943F000C943F000C943F0064
:100020000C943F000C943F000C943F000C943F0054
:100030000C943F000C943F000C943F000C943F0044
:100040000C943F000C943F000C943F000C943F0034
:100050000C943F0011241FBECFE5D8E0DEBFCDBF1A
:1000600010E0A0E6B0E0E8E6F7E002C005900D92EF
:10007000AA36B107D9F70E949A030C94B2030C94E4
:100080000000DF93CF93CDB7DEB727970FB6F89474
:10009000DEBF0FBECDBF89836A834B838A818830E0
:1000A00008F0EAC08B81882309F074C08981282F69
:1000B00030E03F832E838E819F818130910559F1FD
:1000C0002E813F81223031052CF48E819F81009753
:1000D00069F0D2C02E813F812230310589F18E81B5
:1000E0009F818330910509F440C0C6C0AAE3B0E007
:1000F000EAE3F0E08081482F8A81282F30E081E018
:1001000090E0022E02C0880F991F0A94E2F78095B2
:1001100084238C93B1C0A7E3B0E0E7E3F0E08081F3
:10012000482F8A81282F30E081E090E0022E02C023
:10013000880F991F0A94E2F7809584238C939CC0C2
:10014000A4E3B0E0E4E3F0E08081482F8A81282F27
:1001500030E081E090E0022E02C0880F991F0A94DF
:10016000E2F7809584238C9387C0A1E3B0E0E1E3BC
:10017000F0E08081482F8A81282F30E081E090E0F4
:10018000022E02C0880F991F0A94E2F780958423FB
:100190008C9372C08B81813009F06EC08981282FC9
:1001A00030E03D832C838C819D818130910549F124
:1001B0002C813D81223031052CF48C819D8100976A
:1001C00061F05AC02C813D812230310571F18C8162
:1001D0009D8183309105E9F14FC0AAE3B0E0EAE3E5
:1001E000F0E08081482F8A81282F30E081E090E084
:1001F000022E02C0880F991F0A94E2F7842B8C9379
:100200003BC0A7E3B0E0E7E3F0E08081482F8A81BC
:10021000282F30E081E090E0022E02C0880F991F65
:100220000A94E2F7842B8C9327C0A4E3B0E0E4E3C4
:10023000F0E08081482F8A81282F30E081E090E033
:10024000022E02C0880F991F0A94E2F7842B8C9328
:1002500013C0A1E3B0E0E1E3F0E08081482F8A81A0
:10026000282F30E081E090E0022E02C0880F991F15
:100270000A94E2F7842B8C9327960FB6F894DEBF8E
:100280000FBECDBFCF91DF910895DF93CF9300D004
:1002900000D0CDB7DEB789836A838981282F30E00B
:1002A0003C832B838B819C8181309105D1F02B8104
:1002B0003C81223031052CF48B819C81009761F0C8
:1002C0001EC02B813C812230310581F08B819C81C5
:1002D0008330910581F013C0EAE3F0E08A818083E6
:1002E0000EC0E7E3F0E08A81808309C0E4E3F0E038
:1002F0008A81808304C0E1E3F0E08A8180830F90EB
:100300000F900F900F90CF91DF910895DF93CF93CF
:10031000CDB7DEB727970FB6F894DEBF0FBECDBFBF
:1003200089836A834B838A81883008F0EAC08B8195
:10033000882309F074C08981282F30E03F832E8301
:100340008E819F818130910559F12E813F8122302C
:1003500031052CF48E819F81009769F0D2C02E81E7
:100360003F812230310589F18E819F818330910553
:1003700009F440C0C6C0ABE3B0E0EBE3F0E080813D
:10038000482F8A81282F30E081E090E0022E02C0C1
:10039000880F991F0A94E2F7809584238C93B1C04B
:1003A000A8E3B0E0E8E3F0E08081482F8A81282FBD
:1003B00030E081E090E0022E02C0880F991F0A947D
:1003C000E2F7809584238C939CC0A5E3B0E0E5E33D
:1003D000F0E08081482F8A81282F30E081E090E092
:1003E000022E02C0880F991F0A94E2F78095842399
:1003F0008C9387C0A2E3B0E0E2E3F0E08081482F75
:100400008A81282F30E081E090E0022E02C0880F20
:10041000991F0A94E2F7809584238C9372C08B8194
:10042000813009F06EC08981282F30E03D832C8314
:100430008C819D818130910549F12C813D81223053
:1004400031052CF48C819D81009761F05AC02C817C
:100450003D812230310571F18C819D818330910580
:10046000E9F14FC0ABE3B0E0EBE3F0E08081482F6F
:100470008A81282F30E081E090E0022E02C0880FB0
:10048000991F0A94E2F7842B8C933BC0A8E3B0E059
:10049000E8E3F0E08081482F8A81282F30E081E076
:1004A00090E0022E02C0880F991F0A94E2F7842B75
:1004B0008C9327C0A5E3B0E0E5E3F0E08081482F0E
:1004C0008A81282F30E081E090E0022E02C0880F60
:1004D000991F0A94E2F7842B8C9313C0A2E3B0E037
:1004E000E2E3F0E08081482F8A81282F30E081E02C
:1004F00090E0022E02C0880F991F0A94E2F7842B25
:100500008C9327960FB6F894DEBF0FBECDBFCF9168
:10051000DF910895DF93CF9300D000D0CDB7DEB741
:1005200089836A838981282F30E03C832B838B81E8
:100530009C8181309105D1F02B813C8122303105A5
:100540002CF48B819C81009761F01EC02B813C8133
:100550002230310581F08B819C818330910581F0BF
:1005600013C0EBE3F0E08A8180830EC0E8E3F0E0A3
:100570008A81808309C0E5E3F0E08A81808304C03A
:10058000E2E3F0E08A8180830F900F900F900F904C
:10059000CF91DF910895DF93CF9300D000D00F92D9
:1005A000CDB7DEB78A836B838B81883008F067C054
:1005B0008A81282F30E03D832C834C815D8141303E
:1005C000510541F18C819D818230910534F42C815B
:1005D0003D812115310561F052C04C815D81423071
:1005E000510551F18C819D8183309105B9F147C04E
:1005F000E9E3F0E08081282F30E08B81882F90E0C4
:10060000A90102C0559547958A95E2F7CA01817004
:10061000898335C0E6E3F0E08081282F30E08B81CC
:10062000882F90E0A90102C0559547958A95E2F779
:10063000CA018170898323C0E3E3F0E08081282F21
:1006400030E08B81882F90E0A90102C05595479535
:100650008A95E2F7CA018170898311C0E0E3F0E076
:100660008081282F30E08B81882F90E0A90102C083
:10067000559547958A95E2F7CA01817089838981EA
:100680000F900F900F900F900F90CF91DF910895E2
:10069000DF93CF9300D000D0CDB7DEB78A838A81B5
:1006A000282F30E03C832B838B819C818130910506
:1006B000D1F02B813C81223031052CF48B819C813F
:1006C000009761F01EC02B813C812230310581F002
:1006D0008B819C818330910581F013C0E9E3F0E0C8
:1006E000808189830EC0E6E3F0E08081898309C0C0
:1006F000E3E3F0E08081898304C0E0E3F0E08081FF
:10070000898389810F900F900F900F90CF91DF9187
:100710000895DF93CF930F92CDB7DEB78983898198
:10072000882F90E0FC01E05AFF4F80810F90CF911D
:10073000DF910895DF93CF930F92CDB7DEB789E0B5
:10074000898380E06FEF0E94450199818981815002
:100750008983892F0E948903982F80E0692F0E9446
:080760008A02EFCFF894FFCFED
:0A0768005F063B2F666D7D077F6F73
:00000001FF
